:1000000019C028C027C026C025C024C023C022C0D4
:1000100085C120C01FC01EC01DC01CC01BC01AC08F
:1000200019C018C017C016C015C014C013C012C024
:1000300011C010C011241FBECFEFCDBFDFE3DEBF64
:100040002EE3A0E0BEE301C01D92A430B207E1F7A9
:10005000EDD120C2D5CF84E0809321048093250484
:100060008CE695E0809308089093090880E48093DB
:1000700006088BE0809307080895E4E0F8E090819B
:1000800095FFFDCF809302080895CF93382F3295C6
:100090003F7020E3230F982F9F70C0E3C90F2A33CE
:1000A00010F027E3230FCA3310F0C7E3C90F822FE4
:1000B000E4DF8C2FE2DFCF9108958AE08093010482
:1000C00081E080932104809325048FE08093410494
:1000D0008093450483E08093210881E38093200886
:1000E000089580932408E3E2F8E080818823ECF708
:1000F000809124080895CF93DF93C82FD92F80E0F3
:10010000F0DF8D2FEEDF8C2FECDFDF91CF910895A4
:1001100081E08093260485E0E4DF80E0E2DF80FD7B
:10012000FCCF81E0809325040895CF93C1E0C09374
:10013000260486E0D6DFC0932504CF910895CF939F
:10014000DF93EC01E5DF81E08093260483E0C9DFE3
:10015000CE01D1DFDF91CF910895CF93DF93EC01F2
:10016000D7DFE3DF81E08093260482E0BADFCE01AF
:10017000C2DFDF91CF9108954F925F926F927F928D
:10018000BF92CF92DF92EF92FF920F931F93CF9384
:10019000DF93CDB7DEB76297CDBFDEBFB82E2A01A1
:1001A0003B01809346048BEB9CDF8E010F5F1F4F5A
:1001B0007E0187E0E80EF11C680180E092DFF60125
:1001C00081936F01EE15FF05C1F780E08ADF80E0C3
:1001D00088DF6E01F3E1CF0ED11C80E082DFF701F2
:1001E00081937F01CE16DF06C1F7B0924504C201AC
:1001F000B4DFF80181918F0174DF0C151D05C9F77B
:1002000081E0809325046296CDBFDEBFDF91CF9160
:100210001F910F91FF90EF90DF90CF90BF907F9054
:100220006F905F904F9008954F925F926F927F9280
:100230008F929F92AF92BF92CF92DF92EF92FF92F6
:100240000ADF3BDF80E090E07ADF8DE016DF83E5B8
:1002500014DF84E512DF81E410DF82E50EDF84E540
:100260000CDF8DE00ADFC12CD12C760180E039DF74
:100270000CDF260137018FEF481A580A680A780AFE
:10028000C301B2012FEF30E040E050E0E1D04B017C
:100290005C0122E130E040E050E0DAD0672B682BCF
:1002A000692B11F48DE0E9DEC501B4012CEF30E0DB
:1002B00040E050E0CDD0672B682B692BB1F484E08F
:1002C000C80ED11CE11CF11C80E00BDF80E009DFCF
:1002D00080E007DF80E005DF8DE0CFDEC114D104D0
:1002E00080E4E806F10410F209C0730162014114D0
:1002F000510480E46806710408F4B8CF81E080936B
:100300002504FF90EF90DF90CF90BF90AF909F902B
:100310008F907F906F905F904F9008951F920F92F3
:100320000FB60F9211242F933F934F935F936F93C8
:100330007F938F939F93AF93BF93EF93FF934091DE
:10034000003E5091013E6091023E7091033E81E07B
:1003500013DF8091003E9091013EA091023EB0914A
:10036000033E4296A11DB11D8093003E9093013E35
:10037000A093023EB093033E6091003E7091013E17
:100380008091023E9091033E2FEF30E040E050E03C
:100390005FD02CEF30E040E050E05AD0672B682B64
:1003A000692B99F48091003E9091013EA091023E0C
:1003B000B091033E0396A11DB11D8093003E909322
:1003C000013EA093023EB093033E8091003E909187
:1003D000013EA091023EB091033E8E3E9F4FAF433F
:1003E000B10508F0F89481E080930B0AFF91EF913A
:1003F000BF91AF919F918F917F916F915F914F913D
:100400003F912F910F900FBE0F901F90189523DEF4
:1004100054DE88ED84BF1092610088E890E28093FA
:1004200008089093090885E428DEFDCF80E68093D4
:10043000020488E08093150480931604C8E0D4E099
:10044000888185FFE4DF888186FDFACFEDDEF8CF75
:10045000A1E21A2EAA1BBB1BFD010DC0AA1FBB1FC8
:10046000EE1FFF1FA217B307E407F50720F0A21B3A
:10047000B30BE40BF50B661F771F881F991F1A94A7
:1004800069F760957095809590959B01AC01BD01D1
:08049000CF010895F894FFCF9D
:00000001FF
