:1000000019C028C027C026C025C024C023C022C0D4
:100010002FC220C01FC01EC01DC01CC01BC01AC0E4
:1000200019C018C017C016C015C014C013C012C024
:1000300011C010C011241FBECFEFCDBFDFE3DEBF64
:100040002EE3A0E0BEE301C01D92A430B207E1F7A9
:10005000EBD222C3D5CF84E0809321048093250482
:1000600084E09AE1809308089093090880E48093E3
:1000700006088BE0809307080895E4E0F8E090819B
:1000800095FFFDCF809302080895CF93382F3295C6
:100090003F7020E3230F982F9F70C0E3C90F2A33CE
:1000A00010F027E3230FCA3310F0C7E3C90F822FE4
:1000B000E4DF8C2FE2DFCF9108958AE08093010482
:1000C00081E080932104809325048FE08093410494
:1000D0008093450483E08093210883E28093200885
:1000E000089580932408E3E2F8E080818823ECF708
:1000F000809124080895CF93DF93C82FD92F80E0F3
:10010000F0DF8D2FEEDF8C2FECDFDF91CF910895A4
:1001100081E08093260485E0E4DF80E0E2DF80FD7B
:10012000FCCF81E0809325040895CF93C1E0C09374
:10013000260486E0D6DFC0932504CF910895CF939F
:10014000DF93EC01E5DF81E08093260483E0C9DFE3
:10015000CE01D1DFDF91CF910895CF93DF93EC01F2
:10016000D7DFE3DF81E08093260482E0BADFCE01AF
:10017000C2DFDF91CF910895CF93CADFD6DFC1E010
:10018000C093260487ECADDFC0932504CF9108957A
:10019000CF93DF93C82F862FD42FC0934604A1DFBF
:1001A0008D2F9FDFC0934504DF91CF910895F0DF3D
:1001B0008FE39CE90197F1F700C0000008951F93B9
:1001C000CF93DF93C82F162FD42F4CE065E2EFDFDB
:1001D000412F66E28C2FEBDF4D2F63E68C2FE7DF9C
:1001E000DF91CF911F910895CF93DF93C82FD62F22
:1001F0004CE865E2DCDF4D2F66E28C2FD8DF4FEF55
:1002000063E68C2FD4DFDF91CF910895CF93C82F71
:1002100040E86BE6CCDF2FEF81EE94E02150804088
:100220009040E1F700C0000040E16AE68C2FBFDF9C
:1002300040E06BE68C2FBBDF40E06CE68C2FB7DF35
:1002400040E06CE18C2FB3DF40E06BE18C2FAFDF3F
:1002500040E267E38C2FABDF4DE064E28C2FA7DF39
:1002600041E067E68C2FA3DF40E36AE68C2F9FDF37
:1002700041E06BE08C2FA3DF40E867E28C2F97DF33
:100280002FEF81EE94E0215080409040E1F700C0D4
:10029000000046E06AE08C2F92DF40E867E28C2F96
:1002A00086DF47E867E28C2F82DF63E08C2F9CDFDC
:1002B000CF9108954F925F926F927F92BF92CF92AB
:1002C000DF92EF92FF920F931F93CF93DF93CDB7FF
:1002D000DEB76297CDBFDEBFB82E2A013B01809307
:1002E00046048BEBFEDE8E010F5F1F4F7E0187E021
:1002F000E80EF11C680180E0F4DEF60181936F01E5
:10030000EE15FF05C1F780E0ECDE80E0EADE6E016D
:10031000F3E1CF0ED11C80E0E4DEF70181937F0191
:10032000CE16DF06C1F7B0924504C20116DFF80110
:1003300081918F01D6DE0C151D05C9F781E08093F0
:1003400025046296CDBFDEBFDF91CF911F910F9143
:10035000FF90EF90DF90CF90BF907F906F905F9075
:100360004F9008954F925F926F927F928F929F92DB
:10037000AF92BF92CF92DF92EF92FF926CDE9DDE42
:1003800080E090E0DCDE8DE078DE83E576DE84E5FB
:1003900074DE81E472DE82E570DE84E56EDE8DE07F
:1003A0006CDEC12CD12C760180E09BDE6EDE260156
:1003B00037018FEF481A580A680A780A5301420138
:1003C0009924AA24BB24C501B40122E130E040E015
:1003D00050E040D1672B682B692B11F48DE04DDE86
:1003E000C501B4012CEF30E040E050E033D1672B81
:1003F000682B692BA1F485E0C80ED11CE11CF11C0F
:1004000080E06FDE80E06DDE80E06BDE80E069DE44
:10041000C114D10480E4E806F10430F209C073018C
:1004200062014114510480E46806710408F4BCCFF1
:1004300081E080932504FF90EF90DF90CF90BF90F4
:10044000AF909F908F907F906F905F904F900895A6
:1004500080E197E28093260A9093270A81E08093B7
:10046000000AEAE0FAE08081816080837894089550
:100470001F920F920FB60F921124CF92DF92EF923C
:10048000FF922F933F934F935F936F937F938F933D
:100490009F93AF93BF93EF93FF9381E080930B0AF9
:1004A0004091003E5091013E6091023E7091033EAA
:1004B00001DF8091003E9091013EA091023EB091FB
:1004C000033E4296A11DB11D8093003E9093013ED4
:1004D000A093023EB093033E8091003E9091013E76
:1004E000A091023EB091033EBC01CD017727882741
:1004F00099272CEF30E040E050E0ACD0672B682B20
:10050000692B99F48091003E9091013EA091023EAA
:10051000B091033E0496A11DB11D8093003E9093BF
:10052000013EA093023EB093033E8091003E909125
:10053000013EA091023EB091033E8E3E9F4FAF43DD
:10054000B10510F01092000A8091003E9091013E9A
:10055000A091023EB091033EC090003ED090013E7B
:10056000E090023EF090033EBC01CD017727882742
:10057000992722E130E040E050E06CD021E0672B89
:10058000682B692B09F420E021110BC081E096E370
:10059000C9169DE7D906E104F10408F480E0882338
:1005A00009F18AE06ADD8DE068DD8091003E90917E
:1005B000013EA091023EB091033E80E066DD809155
:1005C000003E9091013EA091023EB091033E80E03A
:1005D0005CDD8091003E9091013EA091023EB09181
:1005E000033E53DDFF91EF91BF91AF919F918F91AA
:1005F0007F916F915F914F913F912F91FF90EF907D
:10060000DF90CF900F900FBE0F901F90189523DDB5
:1006100054DD81E0FBDDB0DD7BDDE8E0F4E08081EE
:1006200086FDFDCF15DFFFCF88ED84BF10926100FE
:1006300080E68093020488E080931504809316047A
:10064000C8E0D4E0888185FFE2DF888186FDFACFAB
:1006500089DEF8CFA1E21A2EAA1BBB1BFD010DC03B
:10066000AA1FBB1FEE1FFF1FA217B307E407F50762
:1006700020F0A21BB30BE40BF50B661F771F881F3E
:10068000991F1A9469F760957095809590959B01D4
:0C069000AC01BD01CF010895F894FFCF2C
:00000001FF
