:1000000019C028C027C026C025C024C023C022C0D4
:1000100033C220C01FC01EC01DC01CC01BC01AC0E0
:1000200019C018C017C016C015C014C013C012C024
:1000300011C010C011241FBECFEFCDBFDFE3DEBF64
:100040002EE3A0E0BEE301C01D92A430B207E1F7A9
:10005000B1D2E8C2D5CF84E08093210480932504F7
:1000600084E09AE1809308089093090880E48093E3
:1000700006088BE0809307080895E4E0F8E090819B
:1000800095FFFDCF809302080895CF93382F3295C6
:100090003F7020E3230F982F9F70C0E3C90F2A33CE
:1000A00010F027E3230FCA3310F0C7E3C90F822FE4
:1000B000E4DF8C2FE2DFCF9108958AE08093010482
:1000C00081E080932104809325048FE08093410494
:1000D0008093450483E08093210883E28093200885
:1000E000089580932408E3E2F8E080818823ECF708
:1000F000809124080895CF93DF93C82FD92F80E0F3
:10010000F0DF8D2FEEDF8C2FECDFDF91CF910895A4
:1001100081E08093260485E0E4DF80E0E2DF80FD7B
:10012000FCCF81E0809325040895CF93C1E0C09374
:10013000260486E0D6DFC0932504CF910895CF939F
:10014000DF93EC01E5DF81E08093260483E0C9DFE3
:10015000CE01D1DFDF91CF910895CF93DF93EC01F2
:10016000D7DFE3DF81E08093260482E0BADFCE01AF
:10017000C2DFDF91CF910895CF93CADFD6DFC1E010
:10018000C093260487ECADDFC0932504CF9108957A
:10019000CF93DF93C82F862FD42FC0934604A1DFBF
:1001A0008D2F9FDFC0934504DF91CF910895F0DF3D
:1001B0008FE39CE90197F1F700C0000008951F93B9
:1001C000CF93DF93C82F162FD42F4CE065E2EFDFDB
:1001D000412F66E28C2FEBDF4D2F63E68C2FE7DF9C
:1001E000DF91CF911F910895CF93DF93C82FD62F22
:1001F0004CE865E2DCDF4D2F66E28C2FD8DF4FEF55
:1002000063E68C2FD4DFDF91CF910895CF93C82F71
:1002100040E86BE6CCDF2FEF81EE94E02150804088
:100220009040E1F700C0000040E16AE68C2FBFDF9C
:1002300040E06BE68C2FBBDF40E06CE68C2FB7DF35
:1002400040E06CE18C2FB3DF40E06BE18C2FAFDF3F
:1002500040E267E38C2FABDF4DE064E28C2FA7DF39
:1002600041E067E68C2FA3DF40E36AE68C2F9FDF37
:1002700041E06BE08C2FA3DF40E867E28C2F97DF33
:100280002FEF81EE94E0215080409040E1F700C0D4
:10029000000046E06AE08C2F92DF40E867E28C2F96
:1002A00086DF47E867E28C2F82DF63E08C2F9CDFDC
:1002B000CF9108954F925F926F927F92BF92CF92AB
:1002C000DF92EF92FF920F931F93CF93DF93CDB7FF
:1002D000DEB76297CDBFDEBFB82E2A013B01809307
:1002E00046048BEBFEDE8E010F5F1F4F7E0187E021
:1002F000E80EF11C680180E0F4DEF60181936F01E5
:10030000EE15FF05C1F780E0ECDE80E0EADE6E016D
:10031000F3E1CF0ED11C80E0E4DEF70181937F0191
:10032000CE16DF06C1F7B0924504C20116DFF80110
:1003300081918F01D6DE0C151D05C9F781E08093F0
:1003400025046296CDBFDEBFDF91CF911F910F9143
:10035000FF90EF90DF90CF90BF907F906F905F9075
:100360004F9008954F925F926F927F928F929F92DB
:10037000AF92BF92CF92DF92EF92FF926CDE9DDE42
:1003800080E090E0DCDE8DE078DE83E576DE84E5FB
:1003900074DE81E472DE82E570DE84E56EDE8DE07F
:1003A0006CDEC12CD12C760180E09BDE6EDE260156
:1003B00037018FEF481A580A680A780AC301B20158
:1003C0002FEF30E040E050E00BD14B015C0122E127
:1003D00030E040E050E004D1672B682B692B11F42A
:1003E0008DE04BDEC501B4012CEF30E040E050E081
:1003F000F7D0672B682B692BB1F484E0C80ED11CB1
:10040000E11CF11C80E06DDE80E06BDE80E069DEE7
:1004100080E067DE8DE031DEC114D10480E4E806BF
:10042000F10410F209C0730162014114510480E427
:100430006806710408F4B8CF81E080932504FF902A
:10044000EF90DF90CF90BF90AF909F908F907F9074
:100450006F905F904F90089580E09DE78093260A0B
:100460009093270A81E08093000AEAE0FAE0808115
:1004700081608083789408951F920F920FB60F9237
:1004800011242F933F934F935F936F937F938F9399
:100490009F93AF93BF93CF93DF93EF93FF93C0915D
:1004A000200AD091210A8D2FF0DD8C2FEEDD4091B6
:1004B000003E5091013E6091023E7091033E81E00A
:1004C000F9DE8091003E9091013EA091023EB091F4
:1004D000033E4296A11DB11D8093003E9093013EC4
:1004E000A093023EB093033E6091003E7091013EA6
:1004F0008091023E9091033E2FEF30E040E050E0CB
:100500006FD02CEF30E040E050E06AD0672B682BD2
:10051000692B99F48091003E9091013EA091023E9A
:10052000B091033E0396A11DB11D8093003E9093B0
:10053000013EA093023EB093033E8091003E909115
:10054000013EA091023EB091033E8E3E9F4FAF43CD
:10055000B10508F0F894C091200AD091210A8D2F9E
:1005600094DD8C2F92DD8AE088DD8DE086DD81E0F0
:1005700080930B0AFF91EF91DF91CF91BF91AF91E3
:100580009F918F917F916F915F914F913F912F91AB
:100590000F900FBE0F901F9018955DDD8EDD81E0EE
:1005A00035DEEADDB5DDE8E0F4E0808186FDFDCFF3
:1005B00053DFFFCF88ED84BF1092610080E6809307
:1005C000020488E08093150480931604C8E0D4E008
:1005D000888185FFE2DF888186FDFACFC3DEF8CF10
:1005E000A1E21A2EAA1BBB1BFD010DC0AA1FBB1F37
:1005F000EE1FFF1FA217B307E407F50720F0A21BA9
:10060000B30BE40BF50B661F771F881F991F1A9415
:1006100069F760957095809590959B01AC01BD013F
:08062000CF010895F894FFCF0B
:00000001FF
