:1000000019C020C01FC060C01DC01CC01BC01AC0CA
:100010004CC018C017C016C015C014C013C012C001
:1000200011C010C00FC00EC00DC00CC00BC00AC064
:1000300009C008C011241FBECFEFCDBFDFE3DEBF74
:1000400072D082C0DDCF84E08093210480932504A8
:100050008CE695E0809308089093090880E48093EB
:1000600006088BE0809307080895E4E0F8E09081AB
:1000700095FFFDCF809302080895CF93382F3295D6
:100080003F7020E3230F982F9F70C0E3C90F2A33DE
:1000900010F027E3230FCA3310F0C7E3C90F822FF4
:1000A000E4DF8C2FE2DFCF9108951F920F920FB6FD
:1000B0000F9211248F9381E080930B0A8F910F9000
:1000C0000FBE0F901F9018951F920F920FB60F92B0
:1000D00011242F933F934F935F936F937F938F934D
:1000E0009F93AF93BF93CF93DF93EF93FF93C9E0B9
:1000F000D4E08881C2DF81E7B8DF888180628883AD
:10010000FF91EF91DF91CF91BF91AF919F918F912F
:100110007F916F915F914F913F912F910F900FBE03
:100120000F901F90189580E6809302048BE08093D7
:10013000150480931604789486DF88E596DF8AE0BC
:0C01400094DF8DE092DFFFCFF894FFCF3A
:00000001FF
