:1000000019C020C01FC01EC01DC01CC01BC01AC00C
:1000100034C018C017C016C015C014C013C012C019
:1000200011C010C00FC00EC00DC00CC00BC00AC064
:1000300009C008C011241FBECFEFCDBFDFE3DEBF74
:100040002BD046C0DDCF84E080932104809325042B
:100050008CE695E0809308089093090880E48093EB
:1000600006088BE0809307080895E4E0F8E09081AB
:1000700095FFFDCF8093020808951F920F920FB64F
:100080000F9211248F9381E080930B0A8F910F9030
:100090000FBE0F901F90189580E68093020488E0B1
:1000A0008093150480931604CEDF88E5DEDF8AE0B6
:1000B000DCDF8DE0DADFC8E0D4E0888185FD02C0B6
:1000C00083E4D3DF888186FDF8CF8FE4CEDFF5CFE0
:0400D000F894FFCFD2
:00000001FF
