:1000000019C020C01FC01EC01DC01CC01BC01AC00C
:1000100045C018C017C016C015C014C013C012C008
:1000200011C010C00FC00EC00DC00CC00BC00AC064
:1000300009C008C011241FBECFEFCDBFDFE3DEBF74
:100040005AD05FC0DDCF84E08093210480932504E3
:100050008CE695E0809308089093090880E48093EB
:1000600006088BE0809307080895E4E0F8E09081AB
:1000700095FFFDCF80930208089587EB9CE0809365
:10008000260A9093270AE0E0FAE080818F6080835F
:10009000EAE0FAE080818160808308951F920F92E8
:1000A0000FB60F9211242F933F934F935F936F934B
:1000B0007F938F939F93AF93BF93EF93FF9388E4C6
:1000C000D4DF89E4D2DF8AE0D0DF8DE0CEDF81E0CB
:1000D00080930B0AFF91EF91BF91AF919F918F9108
:1000E0007F916F915F914F913F912F910F900FBE34
:1000F0000F901F901895A7DFC0DF789480E090E004
:060100000895F894FFCF02
:00000001FF
