:1000000019C028C027C026C025C024C023C022C0D4
:1000100026C120C01FC01EC01DC01CC01BC01AC0EE
:1000200019C018C017C016C015C014C013C012C024
:1000300011C010C011241FBECFEFCDBFDFE3DEBF64
:100040002EE3A0E0BEE301C01D92A430B207E1F7A9
:100050007BD1B2C1D5CF84E0809321048093250465
:1000600084E09AE1809308089093090880E48093E3
:1000700006088BE0809307080895E4E0F8E090819B
:1000800095FFFDCF809302080895CF93382F3295C6
:100090003F7020E3230F982F9F70C0E3C90F2A33CE
:1000A00010F027E3230FCA3310F0C7E3C90F822FE4
:1000B000E4DF8C2FE2DFCF9108958AE08093010482
:1000C00081E080932104809325048FE08093410494
:1000D0008093450483E08093210883E28093200885
:1000E000089580932408E3E2F8E080818823ECF708
:1000F000809124080895CF93DF93C82FD92F80E0F3
:10010000F0DF8D2FEEDF8C2FECDFDF91CF910895A4
:1001100081E08093260485E0E4DF80E0E2DF80FD7B
:10012000FCCF81E0809325040895CF93DF93EC0109
:10013000EFDF81E08093260483E0D3DFCE01DBDFB5
:10014000DF91CF9108954F925F926F927F928F923D
:100150009F92AF92BF92CF92DF92EF92FF927BDF9E
:10016000ACDF80E090E0E1DF8DE087DF83E585DFD5
:1001700084E583DF81E481DF82E57FDF84E57DDF65
:100180008DE07BDFC12CD12C760180E0AADF7DDF02
:10019000260137018FEF481A580A680A780AC30106
:1001A000B2012FEF30E040E050E0E4D04B015C01C1
:1001B00022E130E040E050E0DDD0672B682B692B76
:1001C00011F48DE05ADFC501B4012CEF30E040E0BE
:1001D00050E0D0D0672B682B692BB1F484E0C80EB7
:1001E000D11CE11CF11C80E07CDF80E07ADF80E044
:1001F00078DF80E076DF8DE040DFC114D10480E459
:10020000E806F10410F209C07301620141145104BF
:1002100080E46806710408F4B8CF81E08093250477
:10022000FF90EF90DF90CF90BF90AF909F908F9016
:100230007F906F905F904F90089584E294EF809349
:10024000260A9093270AE0E0FAE080818D6080839F
:10025000EAE0FAE0808181608083789408951F92BB
:100260000F920FB60F9211242F933F934F935F93EA
:100270006F937F938F939F93AF93BF93EF93FF936E
:1002800085E4FBDE8091003E9091013EA091023E0C
:10029000B091033E4296A11DB11D8093003E909304
:1002A000013EA093023EB093033E6091003E7091E8
:1002B000013E8091023E9091033E2FEF30E040E0FE
:1002C00050E058D02CEF30E040E050E053D0672BA6
:1002D000682B692B99F48091003E9091013EA0918A
:1002E000023EB091033E0396A11DB11D8093003ED6
:1002F0009093013EA093023EB093033E8091003E56
:100300009091013EA091023EB091033E8E3E9F4FE0
:10031000AF43B10508F0F89481E080930B0AFF9198
:10032000EF91BF91AF919F918F917F916F915F916D
:100330004F913F912F910F900FBE0F901F901895E6
:100340008ADEBBDE7ADFFFCF88ED84BF10926100CA
:1003500080E68093020488E080931504809316045D
:10036000C8E0D4E0888185FFEBDF888186FDFACF85
:10037000EADEF8CFA1E21A2EAA1BBB1BFD010DC0BD
:10038000AA1FBB1FEE1FFF1FA217B307E407F50745
:1003900020F0A21BB30BE40BF50B661F771F881F21
:1003A000991F1A9469F760957095809590959B01B7
:0C03B000AC01BD01CF010895F894FFCF0F
:00000001FF
