:1000000019C028C027C026C025C024C023C022C0D4
:1000100064C220C01FC01EC01DC01CC01BC01AC0AF
:1000200019C018C017C016C015C014C013C012C024
:1000300011C010C011241FBECFEFCDBFDFE3DEBF64
:100040002EE3A0E0BEE301C01D92A430B207E1F7A9
:10005000D2D228C3D5CFAC011816190604F520E07A
:1000600030E0A5E0B4E090E1E6E0F4E09C936FEFCF
:1000700079E688E1615070408040E1F700C00000FF
:1000800090836FEF79E688E1615070408040E1F73E
:1000900000C000002F5F3F4F4217530739F7089504
:1000A00084E0809321048093250484E09AE1809386
:1000B00008089093090880E4809306088BE08093F9
:1000C00007080895E4E0F8E0908195FFFDCF809364
:1000D00002080895CF93382F32953F7020E3230F05
:1000E000982F9F70C0E3C90F2A3310F027E3230F26
:1000F000CA3310F0C7E3C90F822FE4DF8C2FE2DF91
:10010000CF9108958AE08093010481E080932104D7
:10011000809325048FE0809341048093450483E01D
:100120008093210883E28093200808958093240817
:10013000E3E2F8E080818823ECF7809124080895B9
:10014000CF93DF93C62FD72FF1DF8D2FEFDF8C2FCB
:10015000EDDFDF91CF91089581E08093260485E063
:10016000E5DF80E0E3DF80FDFCCF81E080932504C4
:100170000895CF93C1E0C093260486E0D7DFC093F3
:100180002504CF910895CF92DF92EF92FF926B01F9
:100190007C01E2DF81E08093260483E0C7DFC701B2
:1001A000B601CEDFFF90EF90DF90CF900895CF9211
:1001B000DF92EF92FF926B017C01CEDFDADF81E00C
:1001C0008093260482E0B2DFC701B601B9DFFF9059
:1001D000EF90DF90CF900895CF93BEDFCADFC1E0EC
:1001E000C093260487ECA2DFC0932504CF91089525
:1001F000CF93DF93C82F862FD42FC093460496DF6A
:100200008D2F94DFC0934504DF91CF910895F0DFE7
:100210008FE39CE90197F1F700C0000008951F9358
:10022000CF93DF93C82F162FD42F4CE065E2EFDF7A
:10023000412F66E28C2FEBDF4D2F63E68C2FE7DF3B
:10024000DF91CF911F910895CF93DF93C82FD62FC1
:100250004CE865E2DCDF4D2F66E28C2FD8DF4FEFF4
:1002600063E68C2FD4DFDF91CF910895CF93C82F11
:1002700040E86BE6CCDF2FEF81EE94E02150804028
:100280009040E1F700C0000040E16AE68C2FBFDF3C
:1002900040E06BE68C2FBBDF40E06CE68C2FB7DFD5
:1002A00040E06CE18C2FB3DF40E06BE18C2FAFDFDF
:1002B00040E267E38C2FABDF4DE064E28C2FA7DFD9
:1002C00041E067E68C2FA3DF40E36AE68C2F9FDFD7
:1002D00041E06BE08C2FA3DF40E867E28C2F97DFD3
:1002E0002FEF81EE94E0215080409040E1F700C074
:1002F000000046E06AE08C2F92DF40E867E28C2F36
:1003000086DF47E867E28C2F82DF63E08C2F9CDF7B
:10031000CF9108954F925F926F927F92BF92CF924A
:10032000DF92EF92FF920F931F93CF93DF93CDB79E
:10033000DEB76297CDBFDEBFB82E2A013B018093A6
:1003400046048BEBF3DE8E010F5F1F4F7E0187E0CB
:10035000E80EF11C680180E0E9DEF60181936F018F
:10036000EE15FF05C1F780E0E1DE80E0DFDE6E0123
:10037000F3E1CF0ED11C80E0D9DEF70181937F013C
:10038000CE16DF06C1F7B0924504C301B2010FDFFC
:10039000F80181918F01CADE0C151D05C9F781E0B6
:1003A000809325046296CDBFDEBFDF91CF911F9170
:1003B0000F91FF90EF90DF90CF90BF907F906F9064
:1003C0005F904F9008954F925F926F927F928F92BD
:1003D0009F92AF92BF92CF92DF92EF92FF9280E115
:1003E000809305045DDE8EDE60E070E0CB01CBDE45
:1003F0008DE068DE83E566DE84E564DE81E462DE4E
:1004000082E560DE84E55EDE8DE05CDEC12CD12C11
:10041000760180E08BDE5EDE260137018FEF481A21
:10042000580A680A780A530142019924AA24BB2475
:10043000C501B40122E130E040E050E011D1672B6A
:10044000682B692B11F48DE03DDEC501B4012CEF62
:1004500030E040E050E004D1672B682B692BA1F419
:1004600085E0C80ED11CE11CF11C80E05FDE80E05D
:100470005DDE80E05BDE80E059DEC114D10480E403
:10048000E806F10430F209C073016201411451041D
:1004900080E46806710408F4BCCF81E080932504F1
:1004A000FF90EF90DF90CF90BF90AF909F908F9094
:1004B0007F906F905F904F90089580E49CE98093C7
:1004C000260A9093270A81E08093000AEAE0FAE086
:1004D000808181608083789408951F920F920FB677
:1004E0000F9211242F933F934F935F936F937F93BA
:1004F0008F939F93AF93BF93EF93FF9381E080938C
:100500000B0A4091003E5091013E6091023E709175
:10051000033E00DF8091003E9091013EA091023E9B
:10052000B091033E4296A11DB11D8093003E909371
:10053000013EA093023EB093033E8091003E909115
:10054000013EA091023EB091033EBC01CD01772750
:10055000882799272CEF30E040E050E081D0672BCE
:10056000682B692B99F48091003E9091013EA091F7
:10057000023EB091033E0496A11DB11D8093003E42
:100580009093013EA093023EB093033E8091003EC3
:100590009091013EA091023EB091033E8E3E9F4F4E
:1005A000AF43B10510F01092000AFF91EF91BF9197
:1005B000AF919F918F917F916F915F914F913F91FB
:1005C0002F910F900FBE0F901F90189582E090E032
:1005D00042DD98DD81E04ADEFFDDBEDD80E1809313
:1005E0000504E8E0F4E080818823ECF384E090E007
:1005F00032DD63DFFFCF88ED84BF1092610080E8B9
:100600008093020488E08093170480E180930104C2
:1006100080930504C8E0D4E00F2EF6E0EF2EF4E05E
:10062000FF2EF02D10E18881882384F0F7011083DC
:10063000FFEF23E284EFF15020408040E1F700C05B
:100640000000888188230CF4C1DFBDDE9FEFE3ED5D
:10065000F0E39150E040F040E1F700C00000E3CF4C
:10066000A1E21A2EAA1BBB1BFD010DC0AA1FBB1FB6
:10067000EE1FFF1FA217B307E407F50720F0A21B28
:10068000B30BE40BF50B661F771F881F991F1A9495
:1006900069F760957095809590959B01AC01BD01BF
:0806A000CF010895F894FFCF8B
:00000001FF
