:1000000019C020C01FC01EC01DC01CC01BC01AC00C
:1000100010C118C017C016C015C014C013C012C03C
:1000200011C010C00FC00EC00DC00CC00BC00AC064
:1000300009C008C011241FBECFEFCDBFDFE3DEBF74
:1000400007D12AC1DDCF84E0809321048093250469
:100050008CE695E0809308089093090880E48093EB
:1000600006088BE0809307080895E4E0F8E09081AB
:1000700095FFFDCF809302080895CF93382F3295D6
:100080003F7020E3230F982F9F70C0E3C90F2A33DE
:1000900010F027E3230FCA3310F0C7E3C90F822FF4
:1000A000E4DF8C2FE2DFCF9108958AE08093010492
:1000B00081E080932104809325048FE080934104A4
:1000C0008093450481E38093200808958093240859
:1000D000E3E2F8E080818823ECF78091240808951A
:1000E000CF93DF93C82FD92F80E0F0DF8D2FEEDF85
:1000F0008C2FECDFDF91CF91089581E0809326046F
:1001000085E0E4DF80E0E2DF80FDFCCF81E08093EA
:1001100025040895CF93DF93EC01EFDF81E0809316
:10012000260483E0D3DFCE01DBDFDF91CF9108959A
:100130004F925F926F927F928F929F92AF92BF92F7
:10014000CF92DF92EF92FF927EDFAFDF80E090E010
:10015000E1DF8AE08ADF8DE088DF83E586DF84E502
:1001600084DF81E482DF82E580DF84E57EDF8AE070
:100170007CDF8DE07ADFC12CD12C760180E0A6DF18
:100180007CDF260137018FEF481A580A680A780A7F
:10019000C301B2012FEF30E040E050E05BD04B01F3
:1001A0005C0122E130E040E050E054D0672B682B46
:1001B000692B21F48AE059DF8DE057DFC501B401D6
:1001C0002CEF30E040E050E045D0672B682B692BE6
:1001D000B9F484E0C80ED11CE11CF11C80E076DF8C
:1001E00080E074DF80E072DF80E070DF8DE03DDF73
:1001F000C114D10480E4E806F10408F4BFCF09C0BB
:10020000730162014114510480E46806710408F42A
:10021000B5CF81E080932504FF90EF90DF90CF90E1
:10022000BF90AF909F908F907F906F905F904F9016
:1002300008951F920F920FB60F9211248F9381E0B1
:1002400080930B0A8F910F900FBE0F901F901895FF
:100250006FDFFFCFA1E21A2EAA1BBB1BFD010DC051
:10026000AA1FBB1FEE1FFF1FA217B307E407F50766
:1002700020F0A21BB30BE40BF50B661F771F881F42
:10028000991F1A9469F760957095809590959B01D8
:0C029000AC01BD01CF010895F894FFCF30
:00000001FF
