:1000000019C020C01FC01EC01DC01CC01BC01AC00C
:10001000F7C118C017C016C015C014C013C012C055
:1000200011C010C00FC00EC00DC00CC00BC00AC064
:1000300009C008C011241FBECFEFCDBFDFE3DEBF74
:100040000CD23FC2DDCF84E080932104809325044D
:100050008CE695E0809308089093090880E48093EB
:1000600006088BE0809307080895E4E0F8E09081AB
:1000700095FFFDCF809302080895CF93382F3295D6
:100080003F7020E3230F982F9F70C0E3C90F2A33DE
:1000900010F027E3230FCA3310F0C7E3C90F822FF4
:1000A000E4DF8C2FE2DFCF9108958AE08093010492
:1000B00081E080932104809325048FE080934104A4
:1000C0008093450483E08093210881E38093200896
:1000D000089580932408E3E2F8E080818823ECF718
:1000E000809124080895CF93DF93C82FD92F80E003
:1000F000F0DF8D2FEEDF8C2FECDFDF91CF910895B5
:1001000081E08093260485E0E4DF80E0E2DF80FD8B
:10011000FCCF81E0809325040895CF93DF93EC0119
:10012000EFDF81E08093260483E0D3DFCE01DBDFC5
:10013000DF91CF910895CF93DF93C82F862FD42FCF
:10014000C0934604C6DF8D2FC4DFC0934504DF9102
:10015000CF910895F0DF8DE890E20197F1F700006C
:1001600008951F93CF93DF93C82F162FD42F4CE001
:1001700065E2F0DF412F66E28C2FECDF4D2F63E666
:100180008C2FE8DFDF91CF911F910895CF93DF93FC
:10019000C82FD62F4CE865E2DDDF4D2F66E28C2FAD
:1001A000D9DF4FEF63E68C2FD5DFDF91CF91089534
:1001B000CF93C82F40E86BE6CDDF2AE684E091E0DC
:1001C000215080409040E1F700C040E16AE68C2F6A
:1001D000C1DF40E06BE68C2FBDDF40E06CE68C2F8A
:1001E000B9DF40E06CE18C2FB5DF40E06BE18C2F94
:1001F000B1DF40E267E38C2FADDF4DE064E28C2F8E
:10020000A9DF41E067E68C2FA5DF40E36AE68C2F8B
:10021000A1DF41E06BE08C2FA4DF40E867E28C2F88
:1002200099DF2AE684E091E0215080409040E1F798
:1002300000C046E06AE08C2F94DF40E867E28C2F34
:1002400089DF47E867E28C2F85DF63E08C2F9EDF34
:10025000CF910895CF93C82F809346048BEB39DF5D
:1002600080E037DF0ADF80E034DF07DF80E031DF66
:1002700004DF80E02EDF01DF80E02BDFFEDE80E0A8
:1002800028DFFBDE80E025DFF8DE80E022DFF5DE20
:1002900080E01FDFF2DE80E01CDFEFDE80E019DFB0
:1002A000ECDE80E016DFE9DE80E013DFE6DE80E0F2
:1002B00010DFE3DE80E00DDFE0DE80E00ADFDDDE80
:1002C00080E007DFDADE80E004DFD7DE80E001DFF8
:1002D000D4DE80E0FEDED1DEC09345048DE0C5DED5
:1002E0008AE0C3DECF9108954F925F926F927F9222
:1002F0008F929F92AF92BF92CF92DF92EF92FF9236
:10030000A2DED3DE80E090E008DF8DE0AEDE83E5A4
:10031000ACDE84E5AADE81E4A8DE82E5A6DE84E523
:10032000A4DE8DE0A2DEC12CD12C760180E0D1DEEE
:10033000A4DE260137018FEF481A580A680A780AA6
:10034000C301B2012FEF30E040E050E098D04B0104
:100350005C0122E130E040E050E091D0672B682B57
:10036000692B11F48DE081DEC501B4012CEF30E082
:1003700040E050E084D0672B682B692BB1F484E017
:10038000C80ED11CE11CF11C80E0A3DE80E0A1DEE0
:1003900080E09FDE80E09DDE8DE067DEC114D10449
:1003A00080E4E806F10410F209C07301620141140F
:1003B000510480E46806710408F4B8CF81E08093AA
:1003C0002504FF90EF90DF90CF90BF90AF909F906B
:1003D0008F907F906F905F904F90089587EB9CE097
:1003E0008093260A9093270AE0E0FAE080818F60EC
:1003F0008083EAE0FAE080818160808378940895C8
:100400001F920F920FB60F9211242F933F934F9389
:100410005F936F937F938F939F93AF93BF93EF936C
:10042000FF9381E017DF81E080930B0AFF91EF914A
:10043000BF91AF919F918F917F916F915F914F91FC
:100440003F912F910F900FBE0F901F901895FBDDDD
:100450002CDE81E0ADDEC2DFFFCF80E680930204B8
:1004600088E08093150480931604C8E0D4E0888166
:1004700085FFEDDF888186FDFACF36DFF8CFA1E278
:100480001A2EAA1BBB1BFD010DC0AA1FBB1FEE1F0E
:10049000FF1FA217B307E407F50720F0A21BB30B59
:1004A000E40BF50B661F771F881F991F1A9469F7D5
:1004B00060957095809590959B01AC01BD01CF0131
:0604C0000895F894FFCF3F
:00000001FF
